{"contracts/CREATE3Factory.sol":{"CREATE3Factory":{"abi":[{"inputs":[{"internalType":"bytes32","name":"salt","type":"bytes32"},{"internalType":"bytes","name":"creationCode","type":"bytes"}],"name":"deploy","outputs":[{"internalType":"address","name":"deployed","type":"address"}],"stateMutability":"payable","type":"function"},{"inputs":[{"internalType":"address","name":"deployer","type":"address"},{"internalType":"bytes32","name":"salt","type":"bytes32"}],"name":"getDeployed","outputs":[{"internalType":"address","name":"deployed","type":"address"}],"stateMutability":"view","type":"function"}],"evm":{"bytecode":{"linkReferences":{},"object":"608060405234801561001057600080fd5b50610435806100206000396000f3fe6080604052600436106100295760003560e01c806350f1c4641461002e578063cdcb760a14610064575b600080fd5b34801561003a57600080fd5b5061004e610049366004610208565b610077565b60405161005b9190610254565b60405180910390f35b61004e61007236600461035d565b6100b6565b6000828260405160200161008c9291906103d9565b6040516020818303038152906040528051906020012091506100ad826100ee565b90505b92915050565b600033836040516020016100cb9291906103d9565b6040516020818303038152906040528051906020012092506100ad3483856100fa565b60006100b0823061016a565b60006f67363d3d37363d34f03d5260086018f3600052816010806000f58061012a5763301164256000526004601cfd5b8060145261d69460005260016034536017601e20915060008085516020870188855af1823b026101625763301164256000526004601cfd5b509392505050565b60006040518260005260ff600b53836020527f21c35dbe1b344a2488cf3321d6ce542f8e9f305544ff09e4993a62319a497c1f6040526055600b206014528060405261d694600052600160345350506017601e2092915050565b60006001600160a01b0382166100b0565b6101de816101c4565b81146101e957600080fd5b50565b80356100b0816101d5565b806101de565b80356100b0816101f7565b6000806040838503121561021e5761021e600080fd5b600061022a85856101ec565b925050602061023b858286016101fd565b9150509250929050565b61024e816101c4565b82525050565b602081016100b08284610245565b634e487b7160e01b600052604160045260246000fd5b601f19601f830116810181811067ffffffffffffffff8211171561029e5761029e610262565b6040525050565b60006102b060405190565b90506102bc8282610278565b919050565b600067ffffffffffffffff8211156102db576102db610262565b601f19601f83011660200192915050565b82818337506000910152565b600061030b610306846102c1565b6102a5565b90508281526020810184848401111561032657610326600080fd5b6101628482856102ec565b600082601f83011261034557610345600080fd5b81356103558482602086016102f8565b949350505050565b6000806040838503121561037357610373600080fd5b600061037f85856101fd565b925050602083013567ffffffffffffffff81111561039f5761039f600080fd5b61023b85828601610331565b60006100b08260601b90565b60006100b0826103ab565b61024e6103ce826101c4565b6103b7565b8061024e565b60006103e582856103c2565b6014820191506103f582846103d3565b506020019291505056fea26469706673582212204bec886f54707d9b8c65587c5ea3f7bfc14034d5daba518fa4eb3fdbf9f363f464736f6c63430008090033","opcodes":"PUSH1 0x80 PUSH1 0x40 MSTORE CALLVALUE DUP1 ISZERO PUSH2 0x10 JUMPI PUSH1 0x0 DUP1 REVERT JUMPDEST POP PUSH2 0x435 DUP1 PUSH2 0x20 PUSH1 0x0 CODECOPY PUSH1 0x0 RETURN INVALID PUSH1 0x80 PUSH1 0x40 MSTORE PUSH1 0x4 CALLDATASIZE LT PUSH2 0x29 JUMPI PUSH1 0x0 CALLDATALOAD PUSH1 0xE0 SHR DUP1 PUSH4 0x50F1C464 EQ PUSH2 0x2E JUMPI DUP1 PUSH4 0xCDCB760A EQ PUSH2 0x64 JUMPI JUMPDEST PUSH1 0x0 DUP1 REVERT JUMPDEST CALLVALUE DUP1 ISZERO PUSH2 0x3A JUMPI PUSH1 0x0 DUP1 REVERT JUMPDEST POP PUSH2 0x4E PUSH2 0x49 CALLDATASIZE PUSH1 0x4 PUSH2 0x208 JUMP JUMPDEST PUSH2 0x77 JUMP JUMPDEST PUSH1 0x40 MLOAD PUSH2 0x5B SWAP2 SWAP1 PUSH2 0x254 JUMP JUMPDEST PUSH1 0x40 MLOAD DUP1 SWAP2 SUB SWAP1 RETURN JUMPDEST PUSH2 0x4E PUSH2 0x72 CALLDATASIZE PUSH1 0x4 PUSH2 0x35D JUMP JUMPDEST PUSH2 0xB6 JUMP JUMPDEST PUSH1 0x0 DUP3 DUP3 PUSH1 0x40 MLOAD PUSH1 0x20 ADD PUSH2 0x8C SWAP3 SWAP2 SWAP1 PUSH2 0x3D9 JUMP JUMPDEST PUSH1 0x40 MLOAD PUSH1 0x20 DUP2 DUP4 SUB SUB DUP2 MSTORE SWAP1 PUSH1 0x40 MSTORE DUP1 MLOAD SWAP1 PUSH1 0x20 ADD KECCAK256 SWAP2 POP PUSH2 0xAD DUP3 PUSH2 0xEE JUMP JUMPDEST SWAP1 POP JUMPDEST SWAP3 SWAP2 POP POP JUMP JUMPDEST PUSH1 0x0 CALLER DUP4 PUSH1 0x40 MLOAD PUSH1 0x20 ADD PUSH2 0xCB SWAP3 SWAP2 SWAP1 PUSH2 0x3D9 JUMP JUMPDEST PUSH1 0x40 MLOAD PUSH1 0x20 DUP2 DUP4 SUB SUB DUP2 MSTORE SWAP1 PUSH1 0x40 MSTORE DUP1 MLOAD SWAP1 PUSH1 0x20 ADD KECCAK256 SWAP3 POP PUSH2 0xAD CALLVALUE DUP4 DUP6 PUSH2 0xFA JUMP JUMPDEST PUSH1 0x0 PUSH2 0xB0 DUP3 ADDRESS PUSH2 0x16A JUMP JUMPDEST PUSH1 0x0 PUSH16 0x67363D3D37363D34F03D5260086018F3 PUSH1 0x0 MSTORE DUP2 PUSH1 0x10 DUP1 PUSH1 0x0 CREATE2 DUP1 PUSH2 0x12A JUMPI PUSH4 0x30116425 PUSH1 0x0 MSTORE PUSH1 0x4 PUSH1 0x1C REVERT JUMPDEST DUP1 PUSH1 0x14 MSTORE PUSH2 0xD694 PUSH1 0x0 MSTORE PUSH1 0x1 PUSH1 0x34 MSTORE8 PUSH1 0x17 PUSH1 0x1E KECCAK256 SWAP2 POP PUSH1 0x0 DUP1 DUP6 MLOAD PUSH1 0x20 DUP8 ADD DUP9 DUP6 GAS CALL DUP3 EXTCODESIZE MUL PUSH2 0x162 JUMPI PUSH4 0x30116425 PUSH1 0x0 MSTORE PUSH1 0x4 PUSH1 0x1C REVERT JUMPDEST POP SWAP4 SWAP3 POP POP POP JUMP JUMPDEST PUSH1 0x0 PUSH1 0x40 MLOAD DUP3 PUSH1 0x0 MSTORE PUSH1 0xFF PUSH1 0xB MSTORE8 DUP4 PUSH1 0x20 MSTORE PUSH32 0x21C35DBE1B344A2488CF3321D6CE542F8E9F305544FF09E4993A62319A497C1F PUSH1 0x40 MSTORE PUSH1 0x55 PUSH1 0xB KECCAK256 PUSH1 0x14 MSTORE DUP1 PUSH1 0x40 MSTORE PUSH2 0xD694 PUSH1 0x0 MSTORE PUSH1 0x1 PUSH1 0x34 MSTORE8 POP POP PUSH1 0x17 PUSH1 0x1E KECCAK256 SWAP3 SWAP2 POP POP JUMP JUMPDEST PUSH1 0x0 PUSH1 0x1 PUSH1 0x1 PUSH1 0xA0 SHL SUB DUP3 AND PUSH2 0xB0 JUMP JUMPDEST PUSH2 0x1DE DUP2 PUSH2 0x1C4 JUMP JUMPDEST DUP2 EQ PUSH2 0x1E9 JUMPI PUSH1 0x0 DUP1 REVERT JUMPDEST POP JUMP JUMPDEST DUP1 CALLDATALOAD PUSH2 0xB0 DUP2 PUSH2 0x1D5 JUMP JUMPDEST DUP1 PUSH2 0x1DE JUMP JUMPDEST DUP1 CALLDATALOAD PUSH2 0xB0 DUP2 PUSH2 0x1F7 JUMP JUMPDEST PUSH1 0x0 DUP1 PUSH1 0x40 DUP4 DUP6 SUB SLT ISZERO PUSH2 0x21E JUMPI PUSH2 0x21E PUSH1 0x0 DUP1 REVERT JUMPDEST PUSH1 0x0 PUSH2 0x22A DUP6 DUP6 PUSH2 0x1EC JUMP JUMPDEST SWAP3 POP POP PUSH1 0x20 PUSH2 0x23B DUP6 DUP3 DUP7 ADD PUSH2 0x1FD JUMP JUMPDEST SWAP2 POP POP SWAP3 POP SWAP3 SWAP1 POP JUMP JUMPDEST PUSH2 0x24E DUP2 PUSH2 0x1C4 JUMP JUMPDEST DUP3 MSTORE POP POP JUMP JUMPDEST PUSH1 0x20 DUP2 ADD PUSH2 0xB0 DUP3 DUP5 PUSH2 0x245 JUMP JUMPDEST PUSH4 0x4E487B71 PUSH1 0xE0 SHL PUSH1 0x0 MSTORE PUSH1 0x41 PUSH1 0x4 MSTORE PUSH1 0x24 PUSH1 0x0 REVERT JUMPDEST PUSH1 0x1F NOT PUSH1 0x1F DUP4 ADD AND DUP2 ADD DUP2 DUP2 LT PUSH8 0xFFFFFFFFFFFFFFFF DUP3 GT OR ISZERO PUSH2 0x29E JUMPI PUSH2 0x29E PUSH2 0x262 JUMP JUMPDEST PUSH1 0x40 MSTORE POP POP JUMP JUMPDEST PUSH1 0x0 PUSH2 0x2B0 PUSH1 0x40 MLOAD SWAP1 JUMP JUMPDEST SWAP1 POP PUSH2 0x2BC DUP3 DUP3 PUSH2 0x278 JUMP JUMPDEST SWAP2 SWAP1 POP JUMP JUMPDEST PUSH1 0x0 PUSH8 0xFFFFFFFFFFFFFFFF DUP3 GT ISZERO PUSH2 0x2DB JUMPI PUSH2 0x2DB PUSH2 0x262 JUMP JUMPDEST PUSH1 0x1F NOT PUSH1 0x1F DUP4 ADD AND PUSH1 0x20 ADD SWAP3 SWAP2 POP POP JUMP JUMPDEST DUP3 DUP2 DUP4 CALLDATACOPY POP PUSH1 0x0 SWAP2 ADD MSTORE JUMP JUMPDEST PUSH1 0x0 PUSH2 0x30B PUSH2 0x306 DUP5 PUSH2 0x2C1 JUMP JUMPDEST PUSH2 0x2A5 JUMP JUMPDEST SWAP1 POP DUP3 DUP2 MSTORE PUSH1 0x20 DUP2 ADD DUP5 DUP5 DUP5 ADD GT ISZERO PUSH2 0x326 JUMPI PUSH2 0x326 PUSH1 0x0 DUP1 REVERT JUMPDEST PUSH2 0x162 DUP5 DUP3 DUP6 PUSH2 0x2EC JUMP JUMPDEST PUSH1 0x0 DUP3 PUSH1 0x1F DUP4 ADD SLT PUSH2 0x345 JUMPI PUSH2 0x345 PUSH1 0x0 DUP1 REVERT JUMPDEST DUP2 CALLDATALOAD PUSH2 0x355 DUP5 DUP3 PUSH1 0x20 DUP7 ADD PUSH2 0x2F8 JUMP JUMPDEST SWAP5 SWAP4 POP POP POP POP JUMP JUMPDEST PUSH1 0x0 DUP1 PUSH1 0x40 DUP4 DUP6 SUB SLT ISZERO PUSH2 0x373 JUMPI PUSH2 0x373 PUSH1 0x0 DUP1 REVERT JUMPDEST PUSH1 0x0 PUSH2 0x37F DUP6 DUP6 PUSH2 0x1FD JUMP JUMPDEST SWAP3 POP POP PUSH1 0x20 DUP4 ADD CALLDATALOAD PUSH8 0xFFFFFFFFFFFFFFFF DUP2 GT ISZERO PUSH2 0x39F JUMPI PUSH2 0x39F PUSH1 0x0 DUP1 REVERT JUMPDEST PUSH2 0x23B DUP6 DUP3 DUP7 ADD PUSH2 0x331 JUMP JUMPDEST PUSH1 0x0 PUSH2 0xB0 DUP3 PUSH1 0x60 SHL SWAP1 JUMP JUMPDEST PUSH1 0x0 PUSH2 0xB0 DUP3 PUSH2 0x3AB JUMP JUMPDEST PUSH2 0x24E PUSH2 0x3CE DUP3 PUSH2 0x1C4 JUMP JUMPDEST PUSH2 0x3B7 JUMP JUMPDEST DUP1 PUSH2 0x24E JUMP JUMPDEST PUSH1 0x0 PUSH2 0x3E5 DUP3 DUP6 PUSH2 0x3C2 JUMP JUMPDEST PUSH1 0x14 DUP3 ADD SWAP2 POP PUSH2 0x3F5 DUP3 DUP5 PUSH2 0x3D3 JUMP JUMPDEST POP PUSH1 0x20 ADD SWAP3 SWAP2 POP POP JUMP INVALID LOG2 PUSH5 0x6970667358 0x22 SLT KECCAK256 0x4B 0xEC DUP9 PUSH16 0x54707D9B8C65587C5EA3F7BFC14034D5 0xDA 0xBA MLOAD DUP16 LOG4 0xEB EXTCODEHASH 0xDB 0xF9 RETURN PUSH4 0xF464736F PUSH13 0x63430008090033000000000000 "},"methodIdentifiers":{"deploy(bytes32,bytes)":"cdcb760a","getDeployed(address,bytes32)":"50f1c464"}}}}}