{
  "_format": "hh-sol-artifact-1",
  "contractName": "CREATE3Factory",
  "sourceName": "contracts/CREATE3Factory.sol",
  "abi": [
    {
      "inputs": [
        {
          "internalType": "bytes32",
          "name": "salt",
          "type": "bytes32"
        },
        {
          "internalType": "bytes",
          "name": "creationCode",
          "type": "bytes"
        }
      ],
      "name": "deploy",
      "outputs": [
        {
          "internalType": "address",
          "name": "deployed",
          "type": "address"
        }
      ],
      "stateMutability": "payable",
      "type": "function"
    },
    {
      "inputs": [
        {
          "internalType": "address",
          "name": "deployer",
          "type": "address"
        },
        {
          "internalType": "bytes32",
          "name": "salt",
          "type": "bytes32"
        }
      ],
      "name": "getDeployed",
      "outputs": [
        {
          "internalType": "address",
          "name": "deployed",
          "type": "address"
        }
      ],
      "stateMutability": "view",
      "type": "function"
    }
  ],
  "bytecode": "0x608060405234801561001057600080fd5b50610435806100206000396000f3fe6080604052600436106100295760003560e01c806350f1c4641461002e578063cdcb760a14610064575b600080fd5b34801561003a57600080fd5b5061004e610049366004610208565b610077565b60405161005b9190610254565b60405180910390f35b61004e61007236600461035d565b6100b6565b6000828260405160200161008c9291906103d9565b6040516020818303038152906040528051906020012091506100ad826100ee565b90505b92915050565b600033836040516020016100cb9291906103d9565b6040516020818303038152906040528051906020012092506100ad3483856100fa565b60006100b0823061016a565b60006f67363d3d37363d34f03d5260086018f3600052816010806000f58061012a5763301164256000526004601cfd5b8060145261d69460005260016034536017601e20915060008085516020870188855af1823b026101625763301164256000526004601cfd5b509392505050565b60006040518260005260ff600b53836020527f21c35dbe1b344a2488cf3321d6ce542f8e9f305544ff09e4993a62319a497c1f6040526055600b206014528060405261d694600052600160345350506017601e2092915050565b60006001600160a01b0382166100b0565b6101de816101c4565b81146101e957600080fd5b50565b80356100b0816101d5565b806101de565b80356100b0816101f7565b6000806040838503121561021e5761021e600080fd5b600061022a85856101ec565b925050602061023b858286016101fd565b9150509250929050565b61024e816101c4565b82525050565b602081016100b08284610245565b634e487b7160e01b600052604160045260246000fd5b601f19601f830116810181811067ffffffffffffffff8211171561029e5761029e610262565b6040525050565b60006102b060405190565b90506102bc8282610278565b919050565b600067ffffffffffffffff8211156102db576102db610262565b601f19601f83011660200192915050565b82818337506000910152565b600061030b610306846102c1565b6102a5565b90508281526020810184848401111561032657610326600080fd5b6101628482856102ec565b600082601f83011261034557610345600080fd5b81356103558482602086016102f8565b949350505050565b6000806040838503121561037357610373600080fd5b600061037f85856101fd565b925050602083013567ffffffffffffffff81111561039f5761039f600080fd5b61023b85828601610331565b60006100b08260601b90565b60006100b0826103ab565b61024e6103ce826101c4565b6103b7565b8061024e565b60006103e582856103c2565b6014820191506103f582846103d3565b506020019291505056fea26469706673582212204bec886f54707d9b8c65587c5ea3f7bfc14034d5daba518fa4eb3fdbf9f363f464736f6c63430008090033",
  "linkReferences": {},
  "deployedLinkReferences": {}
}